:100000000C942A000C9434000C9434000C943400AA
:100010000C9434000C9434000C9434000C94340090
:100020000C9434000C9434000C9434000C94340080
:100030000C9434000C9434000C9434000C94340070
:100040000C9434000C9434000C9434000C94340060
:100050000C94340011241FBECFE5D4E0DEBFCDBF29
:100060000E9459000C948C000C940000DF93CF93F5
:10007000CDB7DEB7A3E5B0E0E3E5F0E080818B66C5
:100080008C93E7E3F0E088EF8083EAE3F0E010820E
:10009000CF91DF910895DF93CF930F92CDB7DEB765
:1000A0008983ECE5F0E0898180830F90CF91DF9127
:1000B0000895DF93CF9300D0CDB7DEB70E9436000E
:1000C0001A821982E9E3F0E08081882F90E09A8318
:1000D000898389819A81009721F48AE00E944B00EC
:1000E000F1CF89819A818130910521F48AEF0E94B4
:1000F0004B00E8CF89819A818230910521F486E412
:100100000E944B00DFCF89819A8183309105D1F61F
:0C01100088EC0E944B00D6CFF894FFCF83
:00000001FF
