:100000000C942A000C943C000C943C000C943C0092
:100010000C943C000C943C000C943C000C943C0070
:100020000C943C000C943C000C943C000C943C0060
:100030000C943C000C943C000C94C3000C943C00C9
:100040000C943C000C943C000C943C000C943C0040
:100050000C943C0011241FBECFE5D4E0DEBFCDBF21
:1000600010E0A0E6B0E001C01D92A236B107E1F7B2
:100070000E94F1000C949C020C940000DF93CF933B
:10008000CDB7DEB787E290E027E230E0F9012081CA
:100090002164FC01208386E290E026E230E0F90151
:1000A00020812F6AFC012083CF91DF910895DF9397
:1000B000CF9300D0CDB7DEB79A83898389E290E0F1
:1000C0002981FC01208380E490E029813A81232F5B
:1000D0003327FC01208380E490E026E8FC012083A4
:1000E0008AE290E028E1FC0120830F900F90CF91ED
:1000F000DF910895DF93CF93CDB7DEB783E590E02E
:1001000023E530E0F90120812B66FC012083CF91AB
:10011000DF910895DF93CF93CDB7DEB78BE290E008
:10012000FC0180818823D4F78CE290E0FC0180817F
:10013000CF91DF910895DF93CF930F92CDB7DEB7C4
:1001400089838BE290E0FC018081882F90E08072AF
:1001500090700097B1F38CE290E02981FC0120833C
:100160000F90CF91DF910895DF93CF930F92CDB78A
:10017000DEB789838CE590E02981FC0120830F9014
:10018000CF91DF9108951F920F920FB60F92112415
:100190008F939F93EF93FF93DF93CF93CDB7DEB70A
:1001A00084E290E0FC0180819181909361008093D2
:1001B0006000809160009091610099230CF4019699
:1001C000959587959093610080936000CF91DF9122
:1001D000FF91EF919F918F910F900FBE0F901F9005
:1001E0001895DF93CF93CDB7DEB72C970FB6F89461
:1001F000DEBF0FBECDBF87E390E028E0FC01208387
:1002000084E390E02FEFFC0120838CE090E00E94DB
:1002100057000E947A0080E80E94B4000E943E00CD
:10022000789486E290E026E230E0F90120812064B3
:10023000FC0120831A82198203C0000001C0000063
:100240001C861B860E948A00992787FD90959C87B3
:100250008B878B859C858133910599F486E390E0AB
:10026000FC018081882F90E0837090709A87898745
:1002700089859A85C0969A87898789850E949B007F
:10028000DFCF8B859C858233910521F484E10E9428
:10029000B400D6CF8B859C858333910521F482E30E
:1002A0000E94B400CDCF8B859C858433910521F4C9
:1002B00088EC0E94B400C4CF8B859C858533910562
:1002C00021F48FEF0E94B400BBCF8B859C858633D1
:1002D000910521F48FE70E94B400B2CF8B859C85F5
:1002E0008733910531F485E390E021E0FC01208320
:1002F000A7CF8B859C858833910529F485E390E011
:10030000FC0110829DCF8B859C858933910509F076
:1003100094CF80916000909161008A3091058CF4B7
:1003200080E30E949B0080E30E949B0080E30E9488
:100330009B008091600090916100805D0E949B0015
:100340007FCF80916000909161008436910534F5F3
:1003500080916000909161002AE030E0B9010E9434
:100360007502CB0198878F83809160009091610026
:100370002AE030E0B9010E9475029A83898380E304
:100380000E949B0080E30E949B008F81805D0E9401
:100390009B008981805D0E949B0052CF809160000C
:1003A00090916100F3E0883E9F07ECF5809160003A
:1003B0009091610024E630E0B9010E947502CB0102
:1003C00098878F83809160009091610024E630E0EF
:1003D000B9010E9475022AE030E0B9010E9475025D
:1003E000CB019E838D83809160009091610024E613
:1003F00030E0B9010E9475022AE030E0B9010E94A4
:1004000075029A83898380E30E949B008F81805DBF
:100410000E949B008D81805D0E949B008981805D90
:100420000E949B000DCF809160009091610024E0BC
:10043000803092070CF003CF8091600090916100B2
:1004400028EE33E0B9010E947502CB0198878F83B3
:10045000809160009091610028EE33E0B9010E9424
:10046000750224E630E0B9010E947502CB019E833B
:100470008D83809160009091610028EE33E0B90196
:100480000E94750224E630E0B9010E9475022AE05C
:1004900030E0B9010E947502CB019C838B8380916F
:1004A00060009091610028EE33E0B9010E9475026E
:1004B00024E630E0B9010E9475022AE030E0B9017B
:1004C0000E9475029A8389838F81805D0E949B00C0
:1004D0008D81805D0E949B008B81805D0E949B00CE
:1004E0008981805D0E949B00ABCE97FB092E072679
:1004F0000AD077FD04D00CD006D000201AF47095F5
:1005000061957F4F0895F6F7909581959F4F0895D7
:10051000AA1BBB1B51E107C0AA1FBB1FA617B70729
:1005200010F0A61BB70B881F991F5A95A9F7809545
:0C0530009095BC01CD010895F894FFCF18
:00000001FF
