:100000000C942A000C9434000C9434000C943400AA
:100010000C9434000C9434000C9434000C94340090
:100020000C9434000C9434000C9434000C94340080
:100030000C9434000C9434000C9434000C94340070
:100040000C9434000C9434000C9434000C94340060
:100050000C94340011241FBECFE5D4E0DEBFCDBF29
:100060000E947B000C949B000C940000DF93CF93C4
:1000700000D0CDB7DEB79A838983E9E2F0E08981C9
:100080008083E0E4F0E089819A81892F9927808339
:10009000E0E4F0E086E88083EAE2F0E088E1808353
:1000A0000F900F90CF91DF910895DF93CF93CDB74D
:1000B000DEB7EBE2F0E080818823DCF7ECE2F0E0F1
:1000C0008081CF91DF910895DF93CF930F92CDB7C9
:1000D000DEB78983EBE2F0E08081882F90E08072C8
:1000E00090700097B9F3ECE2F0E0898180830F9083
:1000F000CF91DF910895DF93CF930F92CDB7DEB705
:1001000080E38983E7E3F0E08FEF808389E190E08B
:100110000E9436000E94550089838BE50E9464008E
:1001200089810E946400E8E3F0E0898180838DE5A5
:0A0130000E946400EFCFF894FFCFA7
:00000001FF
