:100000000C942A000C9434000C9434000C943400AA
:100010000C9434000C9434000C9434000C94340090
:100020000C9434000C9434000C9434000C94340080
:100030000C9434000C9434000C9434000C94340070
:100040000C9434000C9434000C9434000C94340060
:100050000C94340011241FBECFE5D4E0DEBFCDBF29
:100060000E9436000C9458000C940000DF93CF934C
:1000700000D0CDB7DEB7EAE3F0E01082E4E3F0E0D1
:100080008FEF80831A821982E9E3F0E08081882F64
:1000900090E09A83898389819A81009721F4E5E32E
:1000A000F0E01082F1CFE5E3F0E081E08083ECCF77
:0400B000F894FFCFF2
:00000001FF
